:040000000C947300E9
:100004000C9400000C9400000C9400000C94290142
:100014000C9400000C9400000C9400000C9400005C
:100024000C940E010C9400000C943B020C94000000
:100034000C9400000C9400000C9400000C9400003C
:100044000C9400000C9400000C9400000C9400002C
:1000540000000000253034640D00313A504944203A
:1000640053657474696E670A323A53657420537029
:100074006565640053657420506F696E743A256435
:100084000A52504D3A2564202020004B703A004B10
:10009400693A004B643A0025640025660D005365F7
:1000A4007420506F696E743A005468616E6B205905
:1000B4006F7521002D4E414E000001002D4E414E22
:1000C40000494E46000080C00100020054000100B7
:1000D400040056000100DF02BE000200E302CA0071
:1000E4000000F894EE27ECBBF1E0FBBFEBBFE5BFEB
:1000F400F8E1F1BDE1BD8DE0A2E0BB27ED938A9567
:10010400E9F780E094E0A0E6ED930197E9F7ECECE1
:10011400F0E085919591009761F0A591B5910590D6
:100124001590BF01F00105900D920197E1F7FB01D5
:10013400F0CFEFE5EDBFE4E0EEBFC0E6D2E00C9413
:100144003C02D09AD19AD29AD39AD498D598D69878
:10015400D798D898D998DA98DB98CC9ACD9ACE9A31
:10016400CF9ADC9ADD9ADE9ADF9A08951A9310E109
:10017400D898D99ADA9A0E947B09CC9902C017E0E0
:100184000AC0CD9902C018E006C0CE9902C019E099
:1001940002C0CF9B1CE0D89AD998DA9A0E947B09B6
:1001A400CC9902C014E00AC0CD9902C015E006C083
:1001B400CE9902C016E002C0CF9B1DE0D89AD99A0E
:1001C400DA980E947B09CC9902C011E00AC0CD994B
:1001D40002C012E006C0CE9902C013E002C0CF9B59
:1001E4001EE0D89AD99ADA9ADB9885E88A95F1F7CD
:1001F400CC9902C01AE00AC0CD9902C010E006C032
:10020400CE9902C01BE002C0CF9B1FE0103111F455
:10021400689420F8E12FEBC26A937A93AA93BA9375
:10022400EA93FA93EFB7EA93ACE7B2E00E94B60D13
:10023400EF5FFF4F6F4F7F4F0E94C00DE991EFBFFB
:10024400F991E991B991A9917991699118950A92D5
:100254001A92FA926A937A938A939A93AA93BA9384
:10026400EA93FA93EFB7EA93E0917C02F0917D026E
:1002740060917E0270917F02A0E0B1E080E090E0A6
:100284000E94250DDF01CB01E2B7F0E00E94180DBA
:100294000E94FC0C0E94B90BA0E0B0E080E790E45F
:1002A4000E94450CA0E8B2E00E94820B0E94BB0DA4
:1002B400E0E0E0937C02E0937D02E0937E02E09331
:1002C4007F02E2BFA0918002B091810280918202FC
:1002D400909183020E9480090E94010DE09388029C
:1002E400F093890260938A0270938B020E948909B9
:1002F400A0916002B09161028091620290916302C8
:100304000E94BB0B0E94450CE0936C02F0936D02BB
:1003140060936E0270936F020E948909A091640237
:10032400B091650280916602909167020E94BB0BB6
:100334000E94450CA0917802B091790280917A02D2
:1003440090917B020E94F50BE0937002F09371028E
:100354006093720270937302A0918C02B0918D022B
:1003640080918E0290918F020E9489090E94010D52
:10037400DF01CB01E0916802F091690260916A02A9
:1003840070916B020E94E00D0E94450CE093740290
:10039400F093750260937602709377020E9492093B
:1003A400A0916C02B0916D0280916E0290916F02E7
:1003B4000E94F50BA0917402B091750280917602AF
:1003C400909177020E94F50BA0E9B2E00E94840BA1
:1003D4000E94BB0D0E949B09E0939402F093950246
:1003E40060939602709397020E94A4090E94AD093B
:1003F40034F4E1E0F0E060E070E00E94B5090E94AE
:10040400A409A030E4E0BE07E0E08E07E0E09E0728
:1004140034F0EFEFF3E060E070E00E94B5090E9471
:100424009209E0937802F093790260937A027093D0
:100434007B020E948909E0938C02F0938D02609301
:100444008E0270938F02E8E5F0E0FA93EA930E943B
:100454009B090E94BE09E991EFBFF991E991B99115
:10046400A9919991899179916991F990199009903B
:1004740018951895BED10E949C087894E0E0E2BFDC
:100484009698949AE0919002F0919102FBBDEABD96
:100494006DDE5E2EEBE0E515E9F40E94C509AEE5DC
:1004A400B0E00E94CC08E1E0E51531F0E2E0E515AA
:1004B40019F0EAE0E51509F403C058DE5E2EF3CF27
:1004C4000E949C08E1E0E51509F42DD0E2E0E51571
:1004D40009F406D1EEEBF2E0FA93EA93E8E7F0E0F0
:1004E400FA93EA930E9480090E94D40DE09180025D
:1004F400F091810260918202709183020E94D40D76
:1005040088E00E9460072C96E0E0EA93A0E00E9455
:100514008F08AEEBB2E00E94BD08A4EFB1E00E94E8
:10052400450BB0CFFFCF24971A9310E0133008F097
:10053400D4C00E94C509E12FF0E0309719F4AFE868
:10054400B0E00DC0E130A0E0FA0719F4A3E9B0E08F
:1005540006C0E230A0E0FA0721F4A7E9B0E00E9467
:10056400CC08E89421F8442420F821FC6DC0FEDD79
:100574005E2EE0E1E51511F020FC01C025C0E894F1
:1005840020F8E9E0E51528F00E94CC0908F443942A
:1005940010C0ECE0E51541F40E94D4090E94DA0988
:1005A40008F44A94E89404C0EBE0E51511F4689467
:1005B40021F8E0E0E41518F4E9E0E51508F404C0D6
:1005C4000E94D4090E94E109442011F4E89421F81E
:1005D40021FE39C0E42DF0E0309731F4E0E0E98306
:1005E400EA83EB83EC8329C0E130A0E0FA0741F40D
:1005F400E0919802FF27662777270E94BB0B19C05A
:10060400E230A0E0FA0719F40E94F7090DC0E330C4
:10061400A0E0FA0719F40E94000A06C0E430A0E042
:10062400FA0759F40E94100AF0E0EA0FFB1F0E9437
:100634002A0AE983FA836B837C830E949C08ACE2D8
:10064400B1E00E94450B91CF44240E949C08EEE93E
:10065400F0E0FA93EA93EB81FC816D817E810E9444
:10066400BE09E12FF0E0309759F40E942F0AE0937D
:100674006002F093610260936202709363021DC092
:10068400E130A0E0FA0759F40E942F0AE0936402D3
:10069400F093650260936602709367020EC0E230C5
:1006A400A0E0FA0751F40E942F0AE0936802F09345
:1006B400690260936A0270936B02EEE9F0E0FA93C8
:1006C400EA93E0916002F09161026091620270919C
:1006D40063020E94BE091F5F29CF18810C9477041E
:1006E4001A930E94C509A2EAB0E00E94CC08E894DB
:1006F40021F8442420F821FC77C038DD5E2EE0E1A7
:10070400E51511F020FC01C025C0E89420F8E9E0CB
:10071400E51528F00E94CC0908F4439410C0ECE0DD
:10072400E51541F40E94D4090E94DA0908F44A94B8
:10073400E89404C0EBE0E51511F4689421F8E0E0D6
:10074400E41518F4E9E0E51508F404C00E94D4099E
:100754000E94E109442011F4E89421F821FE43C0E9
:10076400E42DF0E0309751F4E0E0E0938402E0936C
:100774008502E0938602E09387022BC0E130A0E07B
:10078400FA0731F4E0919802FF276627772719C00A
:10079400E230A0E0FA0719F40E94F7090DC0E33033
:1007A400A0E0FA0719F40E94000A06C0E430A0E0B1
:1007B400FA0779F40E94100AF0E0EA0FFB1F0E9486
:1007C400180DE0938402F09385026093860270937F
:1007D40087020E94C509ADEAB0E00E94CC08A8ECEB
:1007E400B0E00E94450B87CF44240E949C081991D5
:1007F4000895E0EFEBBBEFE0EABBE0E7E1BBE1E04B
:10080400E8BBE6E0E3BFE0E0E2BFECBFE3E8EFBD56
:10081400EBE0EEBDE0E0EDBDECBDE7BDE6BDEBBD5C
:10082400EABDE9BDE8BDE8E0E2BDE3E0E5BDE0E046
:10083400E4BDE3BDE1E4E9BFE0E0EBB9E8E9EAB92E
:10084400E6E8E0BDE0E0E0BDE3E3E9B9F894A0E167
:100854000E94DF0876DC0895AA935D9BFECFE881B1
:10086400ECB90C940B09BA93AA93AA81F5DFA88179
:10087400B9810E943A0A0C94DD08BA93AA931A9398
:100884000A93AA81BB8112960E94AC0D309729F17C
:10089400AA81BB8114960E94AC0D8F01309761F040
:1008A4000230E0E01E0780F0F80131978F01AA8141
:1008B400BB811496ED93FC93AA81BB8112960E948E
:1008C4003A0A3197AC81A083AA81BB810E94AC0D06
:1008D400FF2312F00E943A0A06C0AA81BB81EFEFFF
:1008E400FFEFED93FC9319810881259608950E94EA
:1008F400400AE0E8EA83EFE3EB830E94F60DEE851D
:10090400FF85EF3FAFEFFA0749F4E885F985FA93DD
:10091400EA93A8EBB0E00E940D09B7C0EF3FAFE740
:10092400FA0749F4E885F985FA93EA93A9EBB0E06C
:100934000E940D09AAC0AB85A73010F0E6E0EB8752
:100944001B85E12F1150E03019F00E94470AF9CFBE
:10095400EC85FD856E857F850E94F00D21F430E0E5
:100964000E94470A2DC03B850E94560A09F008F4EC
:100974000BC00E94470A0E94560A28F00E94610A8E
:100984000E94660AF8CF0DC00E94560A40F40E94E5
:10099400610A0E94720A0E94790A3150F5CF0E94BE
:1009A400470AEC85FD856E857F850E947E0A0E943C
:1009B400790A0E94560A20F00E94610A0E94660A7F
:1009C40010E0EB85E117A8F1AC81BD818E819F8198
:1009D4000E94850A0E947E0ADF01CB010E946409FD
:1009E400EC83FD836E837F830E94610A0E94930CD3
:1009F4000E94820B0E2F0E948C0A0E94930AFF27EA
:100A0400662777270E94BB0BAC81BD818E819F81B5
:100A14000E94450C0E94610A0E94980A0E94790A69
:100A2400E12F1F5FE03069F60E948C0AEEE2EC933E
:100A3400C8CF0E949D0A3197AA85A08330302CF438
:100A44003195A885B985EDE203C0A885B985EBE2A7
:100A5400EC930E949D0A0E949D0A3197BF01A32F27
:100A6400EAE00E94580DE05DDB01EC930E949D0AD0
:100A74003197BF01A32FEAE00E94820DE05DDB0104
:100A8400EC93A885B985E0E0EC930E94FD0D609697
:100A94000895BA93AA93EF9761970E94F40D10E01A
:100AA400FE01E85AFF4F0190F081E02DE887F987B5
:100AB400FE01EA5AFF4F0190F081E02DEE83FF839F
:100AC400AE81BF81E0E0F0E0ED93FC93DE01A45A37
:100AD400BF4F0E943A0A3197E4912E2FE03009F477
:100AE400E4C1E12FE03039F4253211F411E002C001
:100AF4000E94A30AD9C1E130C1F4253219F40E943D
:100B0400A30AD1C112E0E0E0ED8B00E02D3211F434
:100B140001E0CAC12B3219F4EBE2ED8BC5C12032DE
:100B240019F4E0E2ED8BC0C102C0E23039F450E0C8
:100B340013E0203311F40068B7C102C0E33091F42C
:100B4400203310F02A3308F007C0AAE05A9F502D32
:100B5400E22FE0535E0FA8C140E02E3211F414E0FE
:100B6400A3C10FC0E43099F4203310F02A3308F005
:100B740008C00062AAE04A9F402DE22FE0534E0FC6
:100B840093C12C3619F4026015E08EC103C0E53020
:100B940009F08AC1E22FE33659F40E94AA0A0E949E
:100BA400B10A0E94AA0AA481AA930E94B80A7BC12E
:100BB400E53411F0E53609F403C0E63609F048C01F
:100BC400FE017696EE87FF870E94BE0A0E94B00D52
:100BD4000E94C50A0E94CA0AAD85AA2332F0AD89D3
:100BE400AB3259F0A03281F017C00E94CC0A0E94A7
:100BF4004F0B0E94C50AEDE2ED8B07FF05C0ED899E
:100C0400EA930E94B80A08C0EE85FF853196EE8704
:100C1400FF873197AD89A08305FF46E0263651F45E
:100C24000E94CC0A0E94D40D4A93AB89BC890E94CD
:100C3400AD0709C00E94CC0A0E94D40D4A932A939E
:100C4400AC89BD8954DEFE0176960E94D10A1EC08D
:100C5400E33739F40E94CA0A0E94D90A0E94D10AD1
:100C64000EC0E037C1F40E94CA0A0E94D90AEE8776
:100C7400FF87AE85BF850E9426091E2F08600F7767
:100C8400403011F0411708F001C0142F40E0E0E0BB
:100C9400EC8B30E06DC0E43611F0E93611F40460F9
:100CA40002C0E537A1F4EAE0EC8B01FF08C0E0E004
:100CB400FAEC6AE97BE30E94DE0A1AE022C0E0E172
:100CC400F7E260E070E00E94DE0A15E01AC0E83541
:100CD40011F4086003C0E83709F0E5C0E0E1EC8BEB
:100CE40001FF08C0E0E0F0E060E070E10E94DE0A8D
:100CF40018E007C0E0E0F0E160E070E00E94DE0A86
:100D040014E0403011F00F7701C041E001FF08C04A
:100D14000E94CA0A0E94BE0A14960E94B00D0FC017
:100D240002FF07C00E94CA0A0E94D90A0E94180D35
:100D340006C00E94CA0A0E94D90A66277727EA8752
:100D4400FB876C877D8702FF12C0AD85AA2342F41E
:100D54000E94CC0A0E940A0D0E94C50AEDE2ED8BA6
:100D6400ED89E03019F01F5F4F5F01C00B7F342F16
:100D740000FD14C0151710F4351708F00FC007FF55
:100D840008C002FF04C00B7F2D89115001C020E36D
:100D940001C020E20E94A30A5150ECCF141790F432
:100DA400006102FF06C00E94E30A09F0515011508D
:100DB4004150E0E3EA930E94B80A503009F05150E0
:100DC4004150ECCF312FEC89E030B9F43030A1F050
:100DD40003FF06C0EE85FF852591EE87FF8705C0DA
:100DE400AE85BF852D91AE87BF870E94A30A503080
:100DF40009F051503150EACF4CC00E94F50A0E94CC
:100E04005D0D2E2F2A3030F003FF02C0295C01C093
:100E1400295A01C0205D04FD1CC0213338F4A8897F
:100E2400B9898A899B890E94AD0909F40BC04317CB
:100E340040F4531710F000FF01C010C020E207FF78
:100E440008C020E3006102FF04C00E94E30A09F025
:100E540051500E94A30A503009F0515031500E9461
:100E6400F50A0E948E0D0E94C50AEC89A889B989E9
:100E74008A899B89FF27662777270E945D0D0E9438
:100E8400DE0AE889F9896A897B890E94F00D09F0F4
:100E9400B4CF00FF08C0503031F05150E0E2EA9383
:100EA4000E94B80AF8CF10E011CEAE81BF810E9433
:100EB400AC0D0E94FB0DEF966F960895FF92F82EED
:100EC40026970E94F60D0E94FE0A309719F4EFEF60
:100ED400FFEF1DC0DE0116960E94F80C8D010E94E2
:100EE400FE0AEE83FF83E0E0E887E987DE011A96D5
:100EF4000E94050BEFE3F4E0FA93EA93DE011A96FD
:100F0400C8DD9F01AE81BF81E0E0EC93F9010E944E
:100F1400FD0D2A96FF900895FF92F82E26971A93B6
:100F24000A93DE0114960E94F80C8D01E0E0EC8334
:100F3400ED83EE83EF83DE0118960E94050BE5E353
:100F4400F4E0FA93EA93DE011896A3DD198108818F
:100F54002896FF9008950E94400AE0E0EA83EFE3B8
:100F6400EB831A930A93EB85FC85EF3FAFEFFA0707
:100F740039F40E940E0BA0ECB0E00E940D09A9C048
:100F8400EF3FAFE7FA0739F40E940E0BA1ECB0E093
:100F94000E940D099EC0AC85AA2362F4E985FA85F6
:100FA4006B857C850E944F0B0E94130B0E94180BCB
:100FB400EDE2EC93A885A73010F0E6E0E887188509
:100FC400E12F1150E03039F00E941F0B0E94850A76
:100FD4000E94240BF5CF0E94290B0E94F50B0E945E
:100FE400130B10E0E0E0F0E060E87FE30E94240BE4
:100FF4000E94290B0E94D80C88F00E941F0B0E94AB
:10100400720A0E94240B1F5F173238F00E940E0BE5
:10101400A5ECB0E00E940D095CC0EACF103029F4C1
:101024000E94180BE0E3EC9329C0E12F1150E0304B
:1010340029F10E941F0B0E94850A0E947E0ADF018B
:10104400CB010E9464090E94240B0E94290B0E9478
:10105400930C0E94820B0E2F0E94180B0E94930A7D
:10106400F0E00E941F0B0E942A0A0E94450C0E9475
:10107400320B0E94980A0E94130BD7CFE885E03008
:1010840021F10E94180BEEE2EC93E885E150E88729
:10109400EF5FD9F00E94320B0E94720A0E94130B78
:1010A400E985FA856B857C850E94820B0E2F0E9450
:1010B400180B0E94930AF0E00E94320B0E942A0A45
:1010C4000E94980A0E94130BE0CFAE81BF81E0E03A
:1010D400EC93198108812D960895AA93E8B3EF70D3
:1010E400AE2FE881E07FEA2BE8BB8DE08A95F1F72B
:1010F400C39A8DE08A95F1F7C3988DE08A95F1F74C
:1011040088C0AA93A881E9DFE881E295E883A881F1
:10111400E4DF85E88A95F1F77CC0AA93E881F0E0E2
:10112400ED51FD4FE081A981AE0FEBDF698098801E
:1011340022960895A2E00E94370BACE0E2DFA1E022
:101144000E94370BE0E09E2E6E2E0895AA93A8818C
:10115400AA3011F0681448F0E0E0EA939394A92DC2
:10116400DCDFA881AA3009F454C06394C19AA88131
:10117400C8DFC1984EC0BA93AA931A93A981BA81C1
:10118400ED91A983BA831E2FE03019F0A12FDEDF81
:10119400F5CF10C0BA93AA931A93E981FA813196D4
:1011A400E983FA833197E4911E2FE03019F0A12FDF
:1011B400CDDFF3CF188123960895AA93E7B3E06FA8
:1011C400E7BBBB9AB99ABA9AC398C198C298888067
:1011D400E881E058E093E502E881E054E093E60218
:1011E400A4E1B0E00E94450B0E943D0B0E943D0B20
:1011F4000E943D0BA0E271DF88EC90E00197F1F7CB
:10120400A8E27FDFA4E07DDFA5E87BDFA6E079DF4D
:1012140091DF21960895BA93AA93E991F991A9913E
:10122400B991CD0105900D920020E1F7FC010895DC
:10123400BA93AA93A991B991EE27FF276D916623DA
:1012440011F03196FBCF0895BA93AA93AA27BB272E
:10125400E991F9910590002011F01196FBCFFD0161
:1012640008950E94D90D7B816A81F981E88177FB19
:10127400770F67FD7160972F9E5781F078F0983152
:1012840090F4AA27BB27882708948795B795A79534
:101294009A95D1F7EA23FB23682305C0E8947727BE
:1012A400EE27FF2766276F77769508F4606877F94D
:1012B400A991B99189919991EA17FB076807790770
:1012C40097FB08950E94D90D0E94CA0D0E9433090C
:1012D4000E94CF0D19F40E94C50D09C0E6F70E94C3
:1012E400C50DA0E0B0E080E89FE30E94EE0B2496D9
:1012F4000895DB9A85E88A95F1F70895E0918402D0
:10130400F091850260918602709187020895E091C0
:101314008802F091890260918A0270918B0208958B
:10132400E0917002F0917102609172027091730207
:101334000895E0919002F09191026091920270916F
:1013440093020895A0919002B0919102809192022B
:10135400909193020895A130E0E0BE07E0E08E078B
:10136400E0E09E070895E0939002F0939102609369
:1013740092027093930208950E94D40D84E00E9417
:101384008E07269608950E949C08E0E0EA93A0E068
:101394000C948F08E42DF0E0E856FD4F5082E4E011
:1013A4004E160895E42DEC5FEA93A1E00C948F08A7
:1013B400ADE8B0E00E94CC08E0E0E4150895EDE962
:1013C400F2E0FA93EA93EBE9F0E0FA93EA93E52D7D
:1013D400FF27662777270E94D40D84E00E946007C8
:1013E4002896ADE9B2E00C94BD08A0919802EAE019
:1013F400EA9FF001DF01E09199020895A09198021B
:10140400E4E6EA9FB001A0919902EAE0EA9FF001C4
:10141400DB01AE0FBF1FE0919A020895A0919802DC
:10142400B0E0E8EEF3E00E94450DBF01A0919902FF
:10143400E4E6EA9FF0016E0F7F1FA0919A02EAE0B2
:10144400EA9FF001DB01AE0FBF1FE0919B020895FC
:101454000E94180D0E94BB0B0895A981BA818B814B
:101464009C81E0E0F0E46CE176E40E94930C089542
:10147400ED91FD913196FE93EE930895BA93AA935C
:101484002497E0E0E883E9830895AC81BD818E81EF
:101494009F81E0E0F0E060E271E40E94450CEC839F
:1014A400FD836E837F830895EC81FD816E817F814E
:1014B400AC85BD858E859F850E94D80C0895AC852A
:1014C400BD858E859F850895EDECFCEC6CEC7DE389
:1014D4000E94450CEC87FD876E877F873F5F0895E8
:1014E400E0E0F0E060E271E40E94450C0895EC87CE
:1014F400FD876E877F870895A0E0B0E080E09FE3DA
:101504000E94F50B0895EDECFCEC6CEC7DE30E947D
:10151400450C0895A885B9851196A887B9871197B0
:101524000895E02FE05DEC93E02F08950E94E30D11
:101534000E94EE0B0895E885F9853196E887F987CE
:1015440008952A93AF81B885E985FA8509950895A8
:10155400FE01E65AFF4F0190F081E02D0895349783
:10156400DE01A65ABF4FED93FC930895AF81B88571
:10157400E985FA8509950895DE01A65ABF4F0D90B5
:10158400BC91A02D0895EA87FB876C877D87089519
:10159400DFDFE5CFEA85FB856C857D850895EE87E1
:1015A400FF87AE85BF850E941A091E2F0895E4DFC8
:1015B40014960E94AC0D0895E88BF98B6A8B7B8B93
:1015C40008950B7FED89EA93DE01A95ABF4F0D9070
:1015D400BC91A02DFE01E75AFF4F0190F081E02D50
:1015E400099550300895E889F9896A897B89AA8523
:1015F400BB858C859D850895DE011C960E94F80CA0
:101604000E94AC0D08950E94F80C0E94AC0DFA9350
:10161400EA931A930A930895EE81FF81FA93EA9369
:101624000895E987FA876B877C870895AE81BF8127
:101634001196AE83BF8311970895AA81BB818C81D3
:101644009D810895EA83FB836C837D830895EA81F9
:10165400FB816C817D81A985BA858B859C850895E4
:10166400A985BA858B859C8508950E948308A3E08B
:10167400B0E00C94450BA0E30E946F0888EC90E066
:101684000197F1F70895109639F080ED97E00197EE
:10169400F1F7A8951197C9F7089530976040704005
:1016A40009F070580895552342F4503811F4E0FFBE
:1016B40004C03196691F791F6BF050E8572711F465
:1016C4005F93CFC05F3F31F0660F000C579567956D
:1016D400752F08955F9300200AF0CFC0C8C050E86A
:1016E400192E1522880F991F9527550F879550E8B5
:1016F400072E0522660F771F7527550F67950895E6
:10170400689401C0E8945F93F2DF703818F07F3F6B
:1017140008F4A7C056E1571BAAF4519558300EF4AB
:10172400593030F0EFEFFFEF6FEF7FE777F91AC032
:1017340077275523B9F0EE0FFF1F661F771F5A95C1
:10174400D1F710C07727583028F0EF2FF62F672FE6
:101754005850F9CF552331F076956795F795E7956D
:101764005A95D1F700200AF453D15F9108956894F3
:1017740001C0E894309760407040B1F0002426F036
:10178400772312F4009444D1172E7EE1112032F015
:101794007A95EE0FFF1F661F111CF9CFEF2FF62F5E
:1017A400612D5F938ADF5F9108954F93AF01FD012F
:1017B400DA01AB01BC01CA01402D012C142E4F915A
:1017C4000895EA0FFB1F681F0895E095F095609552
:1017D400EF5FFF4F6F4F08955F9381DF903871F192
:1017E40050E8152604C05F937ADF903839F17038D9
:1017F40021F1572F591B2BF112F4D7DFFACF5831AF
:1018040018F0AA27BB278827583028F0AB2FB82F09
:1018140088275850F9CF552329F08695B795A79571
:101824005A95D9F7502D512572F0CBDF38F46795CE
:10183400F795E795739513F420C0B7DF3EDF5F910A
:101844000895D8F7FBCFEA1BFB0B680B51F010F49B
:101854000094BBDF662392F3EE0FFF1F661F7A9599
:10186400CBF7EE27FF27662777275F910895EFEFE1
:10187400FFEF6FE77FEF5F910895EFEFFFEF6FE703
:101884007FE75F9108955F932ADF703851F39038B2
:1018940041F301240894791F23F41CF300203AF344
:1018A400ECCF0F921F932F933F934F93112722272F
:1018B4009927689FA0018F9F302D410D591F6B9F61
:1018C400300D411D591F8E9F27D0BF9F25D06A9F81
:1018D40023D0BE9F1DD0AF9F1BD0AE9F110D291FDB
:1018E400391F491F591FE32FF42F652F522F4F9192
:1018F4003F912F911F910F9066232AF0550FEE1FF1
:10190400FF1F661F02C073954BF2CDDE5F910895F1
:10191400100D211D391F02C0200D311D491F591FF3
:1019240008955F93DCDE703821F411200AF49FCF10
:10193400A4CF903809F495CF01240894970B1BF495
:10194400D4F30020F3CF792F1F932F933F934F931A
:1019540011241127222733274427552790E2AE1755
:10196400BF078607410730F0AE1BBF0B860B410B48
:10197400089401C08894551F221F331F111CAA1FED
:10198400BB1F881F441F9A9551F7F901612D4F9190
:101994003F912F911F91662332F0550FEE1FFF1FC9
:1019A400661F7A9543F27FDE5F91089599239AF03A
:1019B400772342F0971748F029F4AE17BF0786073C
:1019C40020F031F098948894089598940894089598
:1019D4001894889408957723C2F7971798F3A9F772
:1019E400EA17FB07680788F399F3ECCF0024AF0DDF
:1019F400B01D0895EA0FFB1F681F791F0895EA1BA5
:101A0400FB0B680B790B0895F195E195F04008956F
:101A1400F09560957095E195FF4F6F4F7F4F089556
:101A2400FE2FFF0FFF0B6F2F7F2F08956F2F660F71
:101A3400660B762F0895FA9FF02DEB9FF00DEA9F29
:101A4400E02DF10D08957A9F702D6B9F700DF89F16
:101A5400700DE99F700D6A9F602D710DFB9F600DE5
:101A6400711DE89F600D711D8827FA9FF02D610D8F
:101A7400781FEB9FF00D611D781FEA9FE02DF10D9B
:101A8400681F781F089558D0D6DF0EF4BDDF08957F
:101A9400002498E0AA0F001C0E1A10F40E0E01C0C8
:101AA400A1609A95B9F7EA2FA02D089539D0F0DFF7
:101AB4000EF4E19508953F934F935F93002411240E
:101AC4004427552730E2AA0FBB1F881F991F001C0B
:101AD400111C441F551F0E1A1F0A460B570B28F4DE
:101AE4000E0E1F1E461F571F01C0A1603A9559F7DD
:101AF400FD01BC01D001CA015F914F913F9108954E
:101B0400E894A7FF02C0A1956894E7FDE195C0DFC2
:101B1400EA2F0EF4E1950895CEDFFD01BC0108958E
:101B2400E894E7FF02C0E1956894A7FF04C0A1957B
:101B340000F8039400FA0895E894F7FF02C064DF04
:101B44006894B7FF06C0A095B095119600F8039469
:101B540000FA0895ED91FC9111970895ED91FD918E
:101B64006D917C9113970895ED91FD916D917D9107
:101B74000895ED93FD936D937C9308957E936E93F6
:101B8400FE93EE930895E881F9816A817B8108953B
:101B9400A881B9818A819B810895E883F9836A8346
:101BA4007B8308957A936A93FA93EA9308959A93B8
:101BB4008A93BA93AA930895689401C0E89401D0D3
:101BC400D9DD182E862F612D192E972F712D1B2EDE
:101BD400BF2FF12D1A2EAE2FE12D089530976040BE
:101BE400704008955A934A933A932A931A930A9306
:101BF40008955D814C813B812A8119810881089572
:00000001FF
